{
  "_format": "hh-sol-artifact-1",
  "contractName": "SkillPassNFT",
  "sourceName": "contracts/SkillPassNFT.sol",
  "abi": [
    {
      "inputs": [],
      "stateMutability": "nonpayable",
      "type": "constructor"
    },
    {
      "inputs": [
        {
          "internalType": "address",
          "name": "sender",
          "type": "address"
        },
        {
          "internalType": "uint256",
          "name": "tokenId",
          "type": "uint256"
        },
        {
          "internalType": "address",
          "name": "owner",
          "type": "address"
        }
      ],
      "name": "ERC721IncorrectOwner",
      "type": "error"
    },
    {
      "inputs": [
        {
          "internalType": "address",
          "name": "operator",
          "type": "address"
        },
        {
          "internalType": "uint256",
          "name": "tokenId",
          "type": "uint256"
        }
      ],
      "name": "ERC721InsufficientApproval",
      "type": "error"
    },
    {
      "inputs": [
        {
          "internalType": "address",
          "name": "approver",
          "type": "address"
        }
      ],
      "name": "ERC721InvalidApprover",
      "type": "error"
    },
    {
      "inputs": [
        {
          "internalType": "address",
          "name": "operator",
          "type": "address"
        }
      ],
      "name": "ERC721InvalidOperator",
      "type": "error"
    },
    {
      "inputs": [
        {
          "internalType": "address",
          "name": "owner",
          "type": "address"
        }
      ],
      "name": "ERC721InvalidOwner",
      "type": "error"
    },
    {
      "inputs": [
        {
          "internalType": "address",
          "name": "receiver",
          "type": "address"
        }
      ],
      "name": "ERC721InvalidReceiver",
      "type": "error"
    },
    {
      "inputs": [
        {
          "internalType": "address",
          "name": "sender",
          "type": "address"
        }
      ],
      "name": "ERC721InvalidSender",
      "type": "error"
    },
    {
      "inputs": [
        {
          "internalType": "uint256",
          "name": "tokenId",
          "type": "uint256"
        }
      ],
      "name": "ERC721NonexistentToken",
      "type": "error"
    },
    {
      "inputs": [
        {
          "internalType": "address",
          "name": "owner",
          "type": "address"
        }
      ],
      "name": "OwnableInvalidOwner",
      "type": "error"
    },
    {
      "inputs": [
        {
          "internalType": "address",
          "name": "owner",
          "type": "address"
        }
      ],
      "name": "getTokensByOwner",
      "outputs": [
        {
          "internalType": "uint256[]",
          "name": "",
          "type": "uint256[]"
        }
      ],
      "stateMutability": "view",
      "type": "function"
    },
    {
      "inputs": [
        {
          "internalType": "address",
          "name": "account",
          "type": "address"
        }
      ],
      "name": "OwnableUnauthorizedAccount",
      "type": "error"
    },
    {
      "anonymous": false,
      "inputs": [
        {
          "indexed": true,
          "internalType": "address",
          "name": "owner",
          "type": "address"
        },
        {
          "indexed": true,
          "internalType": "address",
          "name": "approved",
          "type": "address"
        },
        {
          "indexed": true,
          "internalType": "uint256",
          "name": "tokenId",
          "type": "uint256"
        }
      ],
      "name": "Approval",
      "type": "event"
    },
    {
      "anonymous": false,
      "inputs": [
        {
          "indexed": true,
          "internalType": "address",
          "name": "owner",
          "type": "address"
        },
        {
          "indexed": true,
          "internalType": "address",
          "name": "operator",
          "type": "address"
        },
        {
          "indexed": false,
          "internalType": "bool",
          "name": "approved",
          "type": "bool"
        }
      ],
      "name": "ApprovalForAll",
      "type": "event"
    },
    {
      "anonymous": false,
      "inputs": [
        {
          "indexed": false,
          "internalType": "uint256",
          "name": "_fromTokenId",
          "type": "uint256"
        },
        {
          "indexed": false,
          "internalType": "uint256",
          "name": "_toTokenId",
          "type": "uint256"
        }
      ],
      "name": "BatchMetadataUpdate",
      "type": "event"
    },
    {
      "anonymous": false,
      "inputs": [
        {
          "indexed": false,
          "internalType": "uint256",
          "name": "_tokenId",
          "type": "uint256"
        }
      ],
      "name": "MetadataUpdate",
      "type": "event"
    },
    {
      "anonymous": false,
      "inputs": [
        {
          "indexed": true,
          "internalType": "address",
          "name": "previousOwner",
          "type": "address"
        },
        {
          "indexed": true,
          "internalType": "address",
          "name": "newOwner",
          "type": "address"
        }
      ],
      "name": "OwnershipTransferred",
      "type": "event"
    },
    {
      "anonymous": false,
      "inputs": [
        {
          "indexed": true,
          "internalType": "address",
          "name": "from",
          "type": "address"
        },
        {
          "indexed": true,
          "internalType": "address",
          "name": "to",
          "type": "address"
        },
        {
          "indexed": true,
          "internalType": "uint256",
          "name": "tokenId",
          "type": "uint256"
        }
      ],
      "name": "Transfer",
      "type": "event"
    },
    {
      "inputs": [],
      "name": "MAX_SUPPLY",
      "outputs": [
        {
          "internalType": "uint256",
          "name": "",
          "type": "uint256"
        }
      ],
      "stateMutability": "view",
      "type": "function"
    },
    {
      "inputs": [
        {
          "internalType": "address",
          "name": "",
          "type": "address"
        },
        {
          "internalType": "uint256",
          "name": "",
          "type": "uint256"
        }
      ],
      "name": "approve",
      "outputs": [],
      "stateMutability": "pure",
      "type": "function"
    },
    {
      "inputs": [
        {
          "internalType": "address",
          "name": "owner",
          "type": "address"
        }
      ],
      "name": "balanceOf",
      "outputs": [
        {
          "internalType": "uint256",
          "name": "",
          "type": "uint256"
        }
      ],
      "stateMutability": "view",
      "type": "function"
    },
    {
      "inputs": [
        {
          "internalType": "uint256",
          "name": "tokenId",
          "type": "uint256"
        }
      ],
      "name": "burn",
      "outputs": [],
      "stateMutability": "nonpayable",
      "type": "function"
    },
    {
      "inputs": [
        {
          "internalType": "uint256",
          "name": "tokenId",
          "type": "uint256"
        }
      ],
      "name": "getApproved",
      "outputs": [
        {
          "internalType": "address",
          "name": "",
          "type": "address"
        }
      ],
      "stateMutability": "view",
      "type": "function"
    },
    {
      "inputs": [
        {
          "internalType": "address",
          "name": "owner",
          "type": "address"
        },
        {
          "internalType": "address",
          "name": "operator",
          "type": "address"
        }
      ],
      "name": "isApprovedForAll",
      "outputs": [
        {
          "internalType": "bool",
          "name": "",
          "type": "bool"
        }
      ],
      "stateMutability": "view",
      "type": "function"
    },
    {
      "inputs": [
        {
          "internalType": "address",
          "name": "recipient",
          "type": "address"
        },
        {
          "internalType": "string",
          "name": "_tokenURI",
          "type": "string"
        }
      ],
      "name": "mintSkill",
      "outputs": [],
      "stateMutability": "nonpayable",
      "type": "function"
    },
    {
      "inputs": [],
      "name": "name",
      "outputs": [
        {
          "internalType": "string",
          "name": "",
          "type": "string"
        }
      ],
      "stateMutability": "view",
      "type": "function"
    },
    {
      "inputs": [],
      "name": "owner",
      "outputs": [
        {
          "internalType": "address",
          "name": "",
          "type": "address"
        }
      ],
      "stateMutability": "view",
      "type": "function"
    },
    {
      "inputs": [
        {
          "internalType": "uint256",
          "name": "tokenId",
          "type": "uint256"
        }
      ],
      "name": "ownerOf",
      "outputs": [
        {
          "internalType": "address",
          "name": "",
          "type": "address"
        }
      ],
      "stateMutability": "view",
      "type": "function"
    },
    {
      "inputs": [],
      "name": "renounceOwnership",
      "outputs": [],
      "stateMutability": "nonpayable",
      "type": "function"
    },
    {
      "inputs": [
        {
          "internalType": "address",
          "name": "from",
          "type": "address"
        },
        {
          "internalType": "address",
          "name": "to",
          "type": "address"
        },
        {
          "internalType": "uint256",
          "name": "tokenId",
          "type": "uint256"
        }
      ],
      "name": "safeTransferFrom",
      "outputs": [],
      "stateMutability": "nonpayable",
      "type": "function"
    },
    {
      "inputs": [
        {
          "internalType": "address",
          "name": "from",
          "type": "address"
        },
        {
          "internalType": "address",
          "name": "to",
          "type": "address"
        },
        {
          "internalType": "uint256",
          "name": "tokenId",
          "type": "uint256"
        },
        {
          "internalType": "bytes",
          "name": "data",
          "type": "bytes"
        }
      ],
      "name": "safeTransferFrom",
      "outputs": [],
      "stateMutability": "nonpayable",
      "type": "function"
    },
    {
      "inputs": [
        {
          "internalType": "address",
          "name": "",
          "type": "address"
        },
        {
          "internalType": "bool",
          "name": "",
          "type": "bool"
        }
      ],
      "name": "setApprovalForAll",
      "outputs": [],
      "stateMutability": "pure",
      "type": "function"
    },
    {
      "inputs": [
        {
          "internalType": "bytes4",
          "name": "interfaceId",
          "type": "bytes4"
        }
      ],
      "name": "supportsInterface",
      "outputs": [
        {
          "internalType": "bool",
          "name": "",
          "type": "bool"
        }
      ],
      "stateMutability": "view",
      "type": "function"
    },
    {
      "inputs": [],
      "name": "symbol",
      "outputs": [
        {
          "internalType": "string",
          "name": "",
          "type": "string"
        }
      ],
      "stateMutability": "view",
      "type": "function"
    },
    {
      "inputs": [],
      "name": "tokenCount",
      "outputs": [
        {
          "internalType": "uint256",
          "name": "",
          "type": "uint256"
        }
      ],
      "stateMutability": "view",
      "type": "function"
    },
    {
      "inputs": [
        {
          "internalType": "uint256",
          "name": "tokenId",
          "type": "uint256"
        }
      ],
      "name": "tokenURI",
      "outputs": [
        {
          "internalType": "string",
          "name": "",
          "type": "string"
        }
      ],
      "stateMutability": "view",
      "type": "function"
    },
    {
      "inputs": [
        {
          "internalType": "address",
          "name": "from",
          "type": "address"
        },
        {
          "internalType": "address",
          "name": "to",
          "type": "address"
        },
        {
          "internalType": "uint256",
          "name": "tokenId",
          "type": "uint256"
        }
      ],
      "name": "transferFrom",
      "outputs": [],
      "stateMutability": "nonpayable",
      "type": "function"
    },
    {
      "inputs": [
        {
          "internalType": "address",
          "name": "newOwner",
          "type": "address"
        }
      ],
      "name": "transferOwnership",
      "outputs": [],
      "stateMutability": "nonpayable",
      "type": "function"
    }
  ],
  "bytecode": "0x608060405234801561001057600080fd5b50336040518060400160405280600981526020017f536b696c6c5061737300000000000000000000000000000000000000000000008152506040518060400160405280600581526020017f534b494c4c000000000000000000000000000000000000000000000000000000815250816000908161008d919061043d565b50806001908161009d919061043d565b505050600073ffffffffffffffffffffffffffffffffffffffff168173ffffffffffffffffffffffffffffffffffffffff16036101125760006040517f1e4fbdf70000000000000000000000000000000000000000000000000000000081526004016101099190610550565b60405180910390fd5b6101218161012760201b60201c565b5061056b565b6000600760009054906101000a900473ffffffffffffffffffffffffffffffffffffffff16905081600760006101000a81548173ffffffffffffffffffffffffffffffffffffffff021916908373ffffffffffffffffffffffffffffffffffffffff1602179055508173ffffffffffffffffffffffffffffffffffffffff168173ffffffffffffffffffffffffffffffffffffffff167f8be0079c531659141344cd1fd0a4f28419497f9722a3daafe3b4186f6b6457e060405160405180910390a35050565b600081519050919050565b7f4e487b7100000000000000000000000000000000000000000000000000000000600052604160045260246000fd5b7f4e487b7100000000000000000000000000000000000000000000000000000000600052602260045260246000fd5b6000600282049050600182168061026e57607f821691505b60208210810361028157610280610227565b5b50919050565b60008190508160005260206000209050919050565b60006020601f8301049050919050565b600082821b905092915050565b6000600883026102e97fffffffffffffffffffffffffffffffffffffffffffffffffffffffffffffffff826102ac565b6102f386836102ac565b95508019841693508086168417925050509392505050565b6000819050919050565b6000819050919050565b600061033a6103356103308461030b565b610315565b61030b565b9050919050565b6000819050919050565b6103548361031f565b61036861036082610341565b8484546102b9565b825550505050565b600090565b61037d610370565b61038881848461034b565b505050565b5b818110156103ac576103a1600082610375565b60018101905061038e565b5050565b601f8211156103f1576103c281610287565b6103cb8461029c565b810160208510156103da578190505b6103ee6103e68561029c565b83018261038d565b50505b505050565b600082821c905092915050565b6000610414600019846008026103f6565b1980831691505092915050565b600061042d8383610403565b9150826002028217905092915050565b610446826101ed565b67ffffffffffffffff81111561045f5761045e6101f8565b5b6104698254610256565b6104748282856103b0565b600060209050601f8311600181146104a75760008415610495578287015190505b61049f8582610421565b865550610507565b601f1984166104b586610287565b60005b828110156104dd578489015182556001820191506020850194506020810190506104b8565b868310156104fa57848901516104f6601f891682610403565b8355505b6001600288020188555050505b505050505050565b600073ffffffffffffffffffffffffffffffffffffffff82169050919050565b600061053a8261050f565b9050919050565b61054a8161052f565b82525050565b60006020820190506105656000830184610541565b92915050565b612a138061057a6000396000f3fe608060405234801561001057600080fd5b506004361061012c5760003560e01c806370a08231116100ad578063a22cb46511610071578063a22cb4651461031d578063b88d4fde14610339578063c87b56dd14610355578063e985e9c514610385578063f2fde38b146103b55761012c565b806370a0823114610289578063715018a6146102b95780638da5cb5b146102c357806395d89b41146102e15780639f181b5e146102ff5761012c565b806323b872dd116100f457806323b872dd146101e757806332cb6b0c1461020357806342842e0e1461022157806342966c681461023d5780636352211e146102595761012c565b806301ffc9a71461013157806306fdde0314610161578063081812fc1461017f578063095ea7b3146101af5780631b0fb9b9146101cb575b600080fd5b61014b60048036038101906101469190611ca0565b6103d1565b6040516101589190611ce8565b60405180910390f35b610169610432565b6040516101769190611d93565b60405180910390f35b61019960048036038101906101949190611deb565b6104c4565b6040516101a69190611e59565b60405180910390f35b6101c960048036038101906101c49190611ea0565b6104e0565b005b6101e560048036038101906101e09190612015565b61051b565b005b61020160048036038101906101fc9190612071565b6105db565b005b61020b6106dd565b60405161021891906120d3565b60405180910390f35b61023b60048036038101906102369190612071565b6106e3565b005b61025760048036038101906102529190611deb565b610703565b005b610273600480360381019061026e9190611deb565b6107c2565b6040516102809190611e59565b60405180910390f35b6102a3600480360381019061029e91906120ee565b6107d4565b6040516102b091906120d3565b60405180910390f35b6102c161088e565b005b6102cb6108a2565b6040516102d89190611e59565b60405180910390f35b6102e96108cc565b6040516102f69190611d93565b60405180910390f35b61030761095e565b60405161031491906120d3565b60405180910390f35b61033760048036038101906103329190612147565b610964565b005b610353600480360381019061034e9190612228565b61099f565b005b61036f600480360381019061036a9190611deb565b6109c4565b60405161037c9190611d93565b60405180910390f35b61039f600480360381019061039a91906122ab565b610ad7565b6040516103ac9190611ce8565b60405180910390f35b6103cf60048036038101906103ca91906120ee565b610b6b565b005b6000634906490660e01b7bffffffffffffffffffffffffffffffffffffffffffffffffffffffff1916827bffffffffffffffffffffffffffffffffffffffffffffffffffffffff1916148061042b575061042a82610bf1565b5b9050919050565b6060600080546104419061231a565b80601f016020809104026020016040519081016040528092919081815260200182805461046d9061231a565b80156104ba5780601f1061048f576101008083540402835291602001916104ba565b820191906000526020600020905b81548152906001019060200180831161049d57829003601f168201915b5050505050905090565b60006104cf82610cd3565b506104d982610d5b565b9050919050565b6040517f08c379a0000000000000000000000000000000000000000000000000000000008152600401610512906123bd565b60405180910390fd5b610523610d98565b6000815111610567576040517f08c379a000000000000000000000000000000000000000000000000000000000815260040161055e90612429565b60405180910390fd5b612710600854106105ad576040517f08c379a00000000000000000000000000000000000000000000000000000000081526004016105a490612495565b60405180910390fd5b6008600081548092919060010191905055506105cb82600854610e1f565b6105d760085482610e3d565b5050565b600073ffffffffffffffffffffffffffffffffffffffff168273ffffffffffffffffffffffffffffffffffffffff160361064d5760006040517f64a0ae920000000000000000000000000000000000000000000000000000000081526004016106449190611e59565b60405180910390fd5b6000610661838361065c610e99565b610ea1565b90508373ffffffffffffffffffffffffffffffffffffffff168173ffffffffffffffffffffffffffffffffffffffff16146106d7578382826040517f64283d7b0000000000000000000000000000000000000000000000000000000081526004016106ce939291906124b5565b60405180910390fd5b50505050565b61271081565b6106fe8383836040518060200160405280600081525061099f565b505050565b3373ffffffffffffffffffffffffffffffffffffffff16610723826107c2565b73ffffffffffffffffffffffffffffffffffffffff16148061077757503373ffffffffffffffffffffffffffffffffffffffff1661075f6108a2565b73ffffffffffffffffffffffffffffffffffffffff16145b6107b6576040517f08c379a00000000000000000000000000000000000000000000000000000000081526004016107ad90612538565b60405180910390fd5b6107bf81610f6e565b50565b60006107cd82610cd3565b9050919050565b60008073ffffffffffffffffffffffffffffffffffffffff168273ffffffffffffffffffffffffffffffffffffffff16036108475760006040517f89c62b6400000000000000000000000000000000000000000000000000000000815260040161083e9190611e59565b60405180910390fd5b600360008373ffffffffffffffffffffffffffffffffffffffff1673ffffffffffffffffffffffffffffffffffffffff168152602001908152602001600020549050919050565b610896610d98565b6108a06000610ff4565b565b6000600760009054906101000a900473ffffffffffffffffffffffffffffffffffffffff16905090565b6060600180546108db9061231a565b80601f01602080910402602001604051908101604052809291908181526020018280546109079061231a565b80156109545780601f1061092957610100808354040283529160200191610954565b820191906000526020600020905b81548152906001019060200180831161093757829003601f168201915b5050505050905090565b60085481565b6040517f08c379a0000000000000000000000000000000000000000000000000000000008152600401610996906123bd565b60405180910390fd5b6109aa8484846105db565b6109be6109b5610e99565b858585856110ba565b50505050565b60606109cf82610cd3565b5060006006600084815260200190815260200160002080546109f09061231a565b80601f0160208091040260200160405190810160405280929190818152602001828054610a1c9061231a565b8015610a695780601f10610a3e57610100808354040283529160200191610a69565b820191906000526020600020905b815481529060010190602001808311610a4c57829003601f168201915b505050505090506000610a7a61126b565b90506000815103610a8f578192505050610ad2565b600082511115610ac4578082604051602001610aac929190612594565b60405160208183030381529060405292505050610ad2565b610acd84611282565b925050505b919050565b6000600560008473ffffffffffffffffffffffffffffffffffffffff1673ffffffffffffffffffffffffffffffffffffffff16815260200190815260200160002060008373ffffffffffffffffffffffffffffffffffffffff1673ffffffffffffffffffffffffffffffffffffffff16815260200190815260200160002060009054906101000a900460ff16905092915050565b610b73610d98565b600073ffffffffffffffffffffffffffffffffffffffff168173ffffffffffffffffffffffffffffffffffffffff1603610be55760006040517f1e4fbdf7000000000000000000000000000000000000000000000000000000008152600401610bdc9190611e59565b60405180910390fd5b610bee81610ff4565b50565b60007f80ac58cd000000000000000000000000000000000000000000000000000000007bffffffffffffffffffffffffffffffffffffffffffffffffffffffff1916827bffffffffffffffffffffffffffffffffffffffffffffffffffffffff19161480610cbc57507f5b5e139f000000000000000000000000000000000000000000000000000000007bffffffffffffffffffffffffffffffffffffffffffffffffffffffff1916827bffffffffffffffffffffffffffffffffffffffffffffffffffffffff1916145b80610ccc5750610ccb826112eb565b5b9050919050565b600080610cdf83611355565b9050600073ffffffffffffffffffffffffffffffffffffffff168173ffffffffffffffffffffffffffffffffffffffff1603610d5257826040517f7e273289000000000000000000000000000000000000000000000000000000008152600401610d4991906120d3565b60405180910390fd5b80915050919050565b60006004600083815260200190815260200160002060009054906101000a900473ffffffffffffffffffffffffffffffffffffffff169050919050565b610da0610e99565b73ffffffffffffffffffffffffffffffffffffffff16610dbe6108a2565b73ffffffffffffffffffffffffffffffffffffffff1614610e1d57610de1610e99565b6040517f118cdaa7000000000000000000000000000000000000000000000000000000008152600401610e149190611e59565b60405180910390fd5b565b610e39828260405180602001604052806000815250611392565b5050565b80600660008481526020019081526020016000209081610e5d9190612764565b507ff8e1a15aba9398e019f0b49df1a4fde98ee17ae345cb5f6b5e2c27f5033e8ce782604051610e8d91906120d3565b60405180910390a15050565b600033905090565b600080610ead84611355565b9050600073ffffffffffffffffffffffffffffffffffffffff168173ffffffffffffffffffffffffffffffffffffffff1614158015610f195750600073ffffffffffffffffffffffffffffffffffffffff168573ffffffffffffffffffffffffffffffffffffffff1614155b15610f59576040517f08c379a0000000000000000000000000000000000000000000000000000000008152600401610f5090612882565b60405180910390fd5b610f648585856113b6565b9150509392505050565b6000610f7d6000836000610ea1565b9050600073ffffffffffffffffffffffffffffffffffffffff168173ffffffffffffffffffffffffffffffffffffffff1603610ff057816040517f7e273289000000000000000000000000000000000000000000000000000000008152600401610fe791906120d3565b60405180910390fd5b5050565b6000600760009054906101000a900473ffffffffffffffffffffffffffffffffffffffff16905081600760006101000a81548173ffffffffffffffffffffffffffffffffffffffff021916908373ffffffffffffffffffffffffffffffffffffffff1602179055508173ffffffffffffffffffffffffffffffffffffffff168173ffffffffffffffffffffffffffffffffffffffff167f8be0079c531659141344cd1fd0a4f28419497f9722a3daafe3b4186f6b6457e060405160405180910390a35050565b60008373ffffffffffffffffffffffffffffffffffffffff163b1115611264578273ffffffffffffffffffffffffffffffffffffffff1663150b7a02868685856040518563ffffffff1660e01b815260040161111994939291906128f7565b6020604051808303816000875af192505050801561115557506040513d601f19601f820116820180604052508101906111529190612958565b60015b6111d9573d8060008114611185576040519150601f19603f3d011682016040523d82523d6000602084013e61118a565b606091505b5060008151036111d157836040517f64a0ae920000000000000000000000000000000000000000000000000000000081526004016111c89190611e59565b60405180910390fd5b805181602001fd5b63150b7a0260e01b7bffffffffffffffffffffffffffffffffffffffffffffffffffffffff1916817bffffffffffffffffffffffffffffffffffffffffffffffffffffffff19161461126257836040517f64a0ae920000000000000000000000000000000000000000000000000000000081526004016112599190611e59565b60405180910390fd5b505b5050505050565b606060405180602001604052806000815250905090565b606061128d82610cd3565b50600061129861126b565b905060008151116112b857604051806020016040528060008152506112e3565b806112c2846115d0565b6040516020016112d3929190612594565b6040516020818303038152906040525b915050919050565b60007f01ffc9a7000000000000000000000000000000000000000000000000000000007bffffffffffffffffffffffffffffffffffffffffffffffffffffffff1916827bffffffffffffffffffffffffffffffffffffffffffffffffffffffff1916149050919050565b60006002600083815260200190815260200160002060009054906101000a900473ffffffffffffffffffffffffffffffffffffffff169050919050565b61139c838361169e565b6113b16113a7610e99565b60008585856110ba565b505050565b6000806113c284611355565b9050600073ffffffffffffffffffffffffffffffffffffffff168373ffffffffffffffffffffffffffffffffffffffff161461140457611403818486611797565b5b600073ffffffffffffffffffffffffffffffffffffffff168173ffffffffffffffffffffffffffffffffffffffff16146114955761144660008560008061185b565b6001600360008373ffffffffffffffffffffffffffffffffffffffff1673ffffffffffffffffffffffffffffffffffffffff168152602001908152602001600020600082825403925050819055505b600073ffffffffffffffffffffffffffffffffffffffff168573ffffffffffffffffffffffffffffffffffffffff1614611518576001600360008773ffffffffffffffffffffffffffffffffffffffff1673ffffffffffffffffffffffffffffffffffffffff168152602001908152602001600020600082825401925050819055505b846002600086815260200190815260200160002060006101000a81548173ffffffffffffffffffffffffffffffffffffffff021916908373ffffffffffffffffffffffffffffffffffffffff160217905550838573ffffffffffffffffffffffffffffffffffffffff168273ffffffffffffffffffffffffffffffffffffffff167fddf252ad1be2c89b69c2b068fc378daa952ba7f163c4a11628f55a4df523b3ef60405160405180910390a4809150509392505050565b6060600060016115df84611a20565b01905060008167ffffffffffffffff8111156115fe576115fd611eea565b5b6040519080825280601f01601f1916602001820160405280156116305781602001600182028036833780820191505090505b509050600082602001820190505b600115611693578080600190039150507f3031323334353637383961626364656600000000000000000000000000000000600a86061a8153600a858161168757611686612985565b5b0494506000850361163e575b819350505050919050565b600073ffffffffffffffffffffffffffffffffffffffff168273ffffffffffffffffffffffffffffffffffffffff16036117105760006040517f64a0ae920000000000000000000000000000000000000000000000000000000081526004016117079190611e59565b60405180910390fd5b600061171e83836000610ea1565b9050600073ffffffffffffffffffffffffffffffffffffffff168173ffffffffffffffffffffffffffffffffffffffff16146117925760006040517f73c6ac6e0000000000000000000000000000000000000000000000000000000081526004016117899190611e59565b60405180910390fd5b505050565b6117a2838383611b73565b61185657600073ffffffffffffffffffffffffffffffffffffffff168373ffffffffffffffffffffffffffffffffffffffff160361181757806040517f7e27328900000000000000000000000000000000000000000000000000000000815260040161180e91906120d3565b60405180910390fd5b81816040517f177e802f00000000000000000000000000000000000000000000000000000000815260040161184d9291906129b4565b60405180910390fd5b505050565b80806118945750600073ffffffffffffffffffffffffffffffffffffffff168273ffffffffffffffffffffffffffffffffffffffff1614155b156119c85760006118a484610cd3565b9050600073ffffffffffffffffffffffffffffffffffffffff168373ffffffffffffffffffffffffffffffffffffffff161415801561190f57508273ffffffffffffffffffffffffffffffffffffffff168173ffffffffffffffffffffffffffffffffffffffff1614155b801561192257506119208184610ad7565b155b1561196457826040517fa9fbf51f00000000000000000000000000000000000000000000000000000000815260040161195b9190611e59565b60405180910390fd5b81156119c657838573ffffffffffffffffffffffffffffffffffffffff168273ffffffffffffffffffffffffffffffffffffffff167f8c5be1e5ebec7d5bd14f71427d1e84f3dd0314c0f7b2291e5b200ac8c7c3b92560405160405180910390a45b505b836004600085815260200190815260200160002060006101000a81548173ffffffffffffffffffffffffffffffffffffffff021916908373ffffffffffffffffffffffffffffffffffffffff16021790555050505050565b600080600090507a184f03e93ff9f4daa797ed6e38ed64bf6a1f0100000000000000008310611a7e577a184f03e93ff9f4daa797ed6e38ed64bf6a1f0100000000000000008381611a7457611a73612985565b5b0492506040810190505b6d04ee2d6d415b85acef81000000008310611abb576d04ee2d6d415b85acef81000000008381611ab157611ab0612985565b5b0492506020810190505b662386f26fc100008310611aea57662386f26fc100008381611ae057611adf612985565b5b0492506010810190505b6305f5e1008310611b13576305f5e1008381611b0957611b08612985565b5b0492506008810190505b6127108310611b38576127108381611b2e57611b2d612985565b5b0492506004810190505b60648310611b5b5760648381611b5157611b50612985565b5b0492506002810190505b600a8310611b6a576001810190505b80915050919050565b60008073ffffffffffffffffffffffffffffffffffffffff168373ffffffffffffffffffffffffffffffffffffffff1614158015611c2b57508273ffffffffffffffffffffffffffffffffffffffff168473ffffffffffffffffffffffffffffffffffffffff161480611bec5750611beb8484610ad7565b5b80611c2a57508273ffffffffffffffffffffffffffffffffffffffff16611c1283610d5b565b73ffffffffffffffffffffffffffffffffffffffff16145b5b90509392505050565b6000604051905090565b600080fd5b600080fd5b60007fffffffff0000000000000000000000000000000000000000000000000000000082169050919050565b611c7d81611c48565b8114611c8857600080fd5b50565b600081359050611c9a81611c74565b92915050565b600060208284031215611cb657611cb5611c3e565b5b6000611cc484828501611c8b565b91505092915050565b60008115159050919050565b611ce281611ccd565b82525050565b6000602082019050611cfd6000830184611cd9565b92915050565b600081519050919050565b600082825260208201905092915050565b60005b83811015611d3d578082015181840152602081019050611d22565b60008484015250505050565b6000601f19601f8301169050919050565b6000611d6582611d03565b611d6f8185611d0e565b9350611d7f818560208601611d1f565b611d8881611d49565b840191505092915050565b60006020820190508181036000830152611dad8184611d5a565b905092915050565b6000819050919050565b611dc881611db5565b8114611dd357600080fd5b50565b600081359050611de581611dbf565b92915050565b600060208284031215611e0157611e00611c3e565b5b6000611e0f84828501611dd6565b91505092915050565b600073ffffffffffffffffffffffffffffffffffffffff82169050919050565b6000611e4382611e18565b9050919050565b611e5381611e38565b82525050565b6000602082019050611e6e6000830184611e4a565b92915050565b611e7d81611e38565b8114611e8857600080fd5b50565b600081359050611e9a81611e74565b92915050565b60008060408385031215611eb757611eb6611c3e565b5b6000611ec585828601611e8b565b9250506020611ed685828601611dd6565b9150509250929050565b600080fd5b600080fd5b7f4e487b7100000000000000000000000000000000000000000000000000000000600052604160045260246000fd5b611f2282611d49565b810181811067ffffffffffffffff82111715611f4157611f40611eea565b5b80604052505050565b6000611f54611c34565b9050611f608282611f19565b919050565b600067ffffffffffffffff821115611f8057611f7f611eea565b5b611f8982611d49565b9050602081019050919050565b82818337600083830152505050565b6000611fb8611fb384611f65565b611f4a565b905082815260208101848484011115611fd457611fd3611ee5565b5b611fdf848285611f96565b509392505050565b600082601f830112611ffc57611ffb611ee0565b5b813561200c848260208601611fa5565b91505092915050565b6000806040838503121561202c5761202b611c3e565b5b600061203a85828601611e8b565b925050602083013567ffffffffffffffff81111561205b5761205a611c43565b5b61206785828601611fe7565b9150509250929050565b60008060006060848603121561208a57612089611c3e565b5b600061209886828701611e8b565b93505060206120a986828701611e8b565b92505060406120ba86828701611dd6565b9150509250925092565b6120cd81611db5565b82525050565b60006020820190506120e860008301846120c4565b92915050565b60006020828403121561210457612103611c3e565b5b600061211284828501611e8b565b91505092915050565b61212481611ccd565b811461212f57600080fd5b50565b6000813590506121418161211b565b92915050565b6000806040838503121561215e5761215d611c3e565b5b600061216c85828601611e8b565b925050602061217d85828601612132565b9150509250929050565b600067ffffffffffffffff8211156121a2576121a1611eea565b5b6121ab82611d49565b9050602081019050919050565b60006121cb6121c684612187565b611f4a565b9050828152602081018484840111156121e7576121e6611ee5565b5b6121f2848285611f96565b509392505050565b600082601f83011261220f5761220e611ee0565b5b813561221f8482602086016121b8565b91505092915050565b6000806000806080858703121561224257612241611c3e565b5b600061225087828801611e8b565b945050602061226187828801611e8b565b935050604061227287828801611dd6565b925050606085013567ffffffffffffffff81111561229357612292611c43565b5b61229f878288016121fa565b91505092959194509250565b600080604083850312156122c2576122c1611c3e565b5b60006122d085828601611e8b565b92505060206122e185828601611e8b565b9150509250929050565b7f4e487b7100000000000000000000000000000000000000000000000000000000600052602260045260246000fd5b6000600282049050600182168061233257607f821691505b602082108103612345576123446122eb565b5b50919050565b7f417070726f76616c732064697361626c656420666f7220736f756c626f756e6460008201527f20746f6b656e7300000000000000000000000000000000000000000000000000602082015250565b60006123a7602783611d0e565b91506123b28261234b565b604082019050919050565b600060208201905081810360008301526123d68161239a565b9050919050565b7f456d707479205552490000000000000000000000000000000000000000000000600082015250565b6000612413600983611d0e565b915061241e826123dd565b602082019050919050565b6000602082019050818103600083015261244281612406565b9050919050565b7f4d617820737570706c7920726561636865640000000000000000000000000000600082015250565b600061247f601283611d0e565b915061248a82612449565b602082019050919050565b600060208201905081810360008301526124ae81612472565b9050919050565b60006060820190506124ca6000830186611e4a565b6124d760208301856120c4565b6124e46040830184611e4a565b949350505050565b7f4e6f74206f776e65720000000000000000000000000000000000000000000000600082015250565b6000612522600983611d0e565b915061252d826124ec565b602082019050919050565b6000602082019050818103600083015261255181612515565b9050919050565b600081905092915050565b600061256e82611d03565b6125788185612558565b9350612588818560208601611d1f565b80840191505092915050565b60006125a08285612563565b91506125ac8284612563565b91508190509392505050565b60008190508160005260206000209050919050565b60006020601f8301049050919050565b600082821b905092915050565b60006008830261261a7fffffffffffffffffffffffffffffffffffffffffffffffffffffffffffffffff826125dd565b61262486836125dd565b95508019841693508086168417925050509392505050565b6000819050919050565b600061266161265c61265784611db5565b61263c565b611db5565b9050919050565b6000819050919050565b61267b83612646565b61268f61268782612668565b8484546125ea565b825550505050565b600090565b6126a4612697565b6126af818484612672565b505050565b5b818110156126d3576126c860008261269c565b6001810190506126b5565b5050565b601f821115612718576126e9816125b8565b6126f2846125cd565b81016020851015612701578190505b61271561270d856125cd565b8301826126b4565b50505b505050565b600082821c905092915050565b600061273b6000198460080261271d565b1980831691505092915050565b6000612754838361272a565b9150826002028217905092915050565b61276d82611d03565b67ffffffffffffffff81111561278657612785611eea565b5b612790825461231a565b61279b8282856126d7565b600060209050601f8311600181146127ce57600084156127bc578287015190505b6127c68582612748565b86555061282e565b601f1984166127dc866125b8565b60005b82811015612804578489015182556001820191506020850194506020810190506127df565b86831015612821578489015161281d601f89168261272a565b8355505b6001600288020188555050505b505050505050565b7f536f756c626f756e643a205472616e73666572732064697361626c6564000000600082015250565b600061286c601d83611d0e565b915061287782612836565b602082019050919050565b6000602082019050818103600083015261289b8161285f565b9050919050565b600081519050919050565b600082825260208201905092915050565b60006128c9826128a2565b6128d381856128ad565b93506128e3818560208601611d1f565b6128ec81611d49565b840191505092915050565b600060808201905061290c6000830187611e4a565b6129196020830186611e4a565b61292660408301856120c4565b818103606083015261293881846128be565b905095945050505050565b60008151905061295281611c74565b92915050565b60006020828403121561296e5761296d611c3e565b5b600061297c84828501612943565b91505092915050565b7f4e487b7100000000000000000000000000000000000000000000000000000000600052601260045260246000fd5b60006040820190506129c96000830185611e4a565b6129d660208301846120c4565b939250505056fea2646970667358221220b678d2e27cde0121bcd0034631a2e9c2dc0aadf8ac18df484559fb14637a317964736f6c634300081c0033",
  "linkReferences": {},
  "deployedLinkReferences": {}
}