{
  "_format": "hh-sol-artifact-1",
  "contractName": "SkillPassNFT",
  "sourceName": "contracts/SkillPassNFT.sol",
  "abi": [
    {
      "inputs": [],
      "stateMutability": "nonpayable",
      "type": "constructor"
    },
    {
      "inputs": [],
      "name": "ERC721EnumerableForbiddenBatchMint",
      "type": "error"
    },
    {
      "inputs": [
        {
          "internalType": "address",
          "name": "sender",
          "type": "address"
        },
        {
          "internalType": "uint256",
          "name": "tokenId",
          "type": "uint256"
        },
        {
          "internalType": "address",
          "name": "owner",
          "type": "address"
        }
      ],
      "name": "ERC721IncorrectOwner",
      "type": "error"
    },
    {
      "inputs": [
        {
          "internalType": "address",
          "name": "operator",
          "type": "address"
        },
        {
          "internalType": "uint256",
          "name": "tokenId",
          "type": "uint256"
        }
      ],
      "name": "ERC721InsufficientApproval",
      "type": "error"
    },
    {
      "inputs": [
        {
          "internalType": "address",
          "name": "approver",
          "type": "address"
        }
      ],
      "name": "ERC721InvalidApprover",
      "type": "error"
    },
    {
      "inputs": [
        {
          "internalType": "address",
          "name": "operator",
          "type": "address"
        }
      ],
      "name": "ERC721InvalidOperator",
      "type": "error"
    },
    {
      "inputs": [
        {
          "internalType": "address",
          "name": "owner",
          "type": "address"
        }
      ],
      "name": "ERC721InvalidOwner",
      "type": "error"
    },
    {
      "inputs": [
        {
          "internalType": "address",
          "name": "receiver",
          "type": "address"
        }
      ],
      "name": "ERC721InvalidReceiver",
      "type": "error"
    },
    {
      "inputs": [
        {
          "internalType": "address",
          "name": "sender",
          "type": "address"
        }
      ],
      "name": "ERC721InvalidSender",
      "type": "error"
    },
    {
      "inputs": [
        {
          "internalType": "uint256",
          "name": "tokenId",
          "type": "uint256"
        }
      ],
      "name": "ERC721NonexistentToken",
      "type": "error"
    },
    {
      "inputs": [
        {
          "internalType": "address",
          "name": "owner",
          "type": "address"
        },
        {
          "internalType": "uint256",
          "name": "index",
          "type": "uint256"
        }
      ],
      "name": "ERC721OutOfBoundsIndex",
      "type": "error"
    },
    {
      "inputs": [
        {
          "internalType": "address",
          "name": "owner",
          "type": "address"
        }
      ],
      "name": "OwnableInvalidOwner",
      "type": "error"
    },
    {
      "inputs": [
        {
          "internalType": "address",
          "name": "account",
          "type": "address"
        }
      ],
      "name": "OwnableUnauthorizedAccount",
      "type": "error"
    },
    {
      "anonymous": false,
      "inputs": [
        {
          "indexed": true,
          "internalType": "address",
          "name": "owner",
          "type": "address"
        },
        {
          "indexed": true,
          "internalType": "address",
          "name": "approved",
          "type": "address"
        },
        {
          "indexed": true,
          "internalType": "uint256",
          "name": "tokenId",
          "type": "uint256"
        }
      ],
      "name": "Approval",
      "type": "event"
    },
    {
      "anonymous": false,
      "inputs": [
        {
          "indexed": true,
          "internalType": "address",
          "name": "owner",
          "type": "address"
        },
        {
          "indexed": true,
          "internalType": "address",
          "name": "operator",
          "type": "address"
        },
        {
          "indexed": false,
          "internalType": "bool",
          "name": "approved",
          "type": "bool"
        }
      ],
      "name": "ApprovalForAll",
      "type": "event"
    },
    {
      "anonymous": false,
      "inputs": [
        {
          "indexed": false,
          "internalType": "uint256",
          "name": "_fromTokenId",
          "type": "uint256"
        },
        {
          "indexed": false,
          "internalType": "uint256",
          "name": "_toTokenId",
          "type": "uint256"
        }
      ],
      "name": "BatchMetadataUpdate",
      "type": "event"
    },
    {
      "anonymous": false,
      "inputs": [
        {
          "indexed": false,
          "internalType": "uint256",
          "name": "_tokenId",
          "type": "uint256"
        }
      ],
      "name": "MetadataUpdate",
      "type": "event"
    },
    {
      "anonymous": false,
      "inputs": [
        {
          "indexed": true,
          "internalType": "address",
          "name": "previousOwner",
          "type": "address"
        },
        {
          "indexed": true,
          "internalType": "address",
          "name": "newOwner",
          "type": "address"
        }
      ],
      "name": "OwnershipTransferred",
      "type": "event"
    },
    {
      "anonymous": false,
      "inputs": [
        {
          "indexed": true,
          "internalType": "address",
          "name": "recipient",
          "type": "address"
        },
        {
          "indexed": true,
          "internalType": "uint256",
          "name": "tokenId",
          "type": "uint256"
        },
        {
          "indexed": false,
          "internalType": "string",
          "name": "tokenURI",
          "type": "string"
        }
      ],
      "name": "SkillMinted",
      "type": "event"
    },
    {
      "anonymous": false,
      "inputs": [
        {
          "indexed": true,
          "internalType": "address",
          "name": "from",
          "type": "address"
        },
        {
          "indexed": true,
          "internalType": "address",
          "name": "to",
          "type": "address"
        },
        {
          "indexed": true,
          "internalType": "uint256",
          "name": "tokenId",
          "type": "uint256"
        }
      ],
      "name": "Transfer",
      "type": "event"
    },
    {
      "inputs": [],
      "name": "MAX_SUPPLY",
      "outputs": [
        {
          "internalType": "uint256",
          "name": "",
          "type": "uint256"
        }
      ],
      "stateMutability": "view",
      "type": "function"
    },
    {
      "inputs": [
        {
          "internalType": "address",
          "name": "",
          "type": "address"
        },
        {
          "internalType": "uint256",
          "name": "",
          "type": "uint256"
        }
      ],
      "name": "approve",
      "outputs": [],
      "stateMutability": "pure",
      "type": "function"
    },
    {
      "inputs": [
        {
          "internalType": "address",
          "name": "owner",
          "type": "address"
        }
      ],
      "name": "balanceOf",
      "outputs": [
        {
          "internalType": "uint256",
          "name": "",
          "type": "uint256"
        }
      ],
      "stateMutability": "view",
      "type": "function"
    },
    {
      "inputs": [
        {
          "internalType": "uint256",
          "name": "tokenId",
          "type": "uint256"
        }
      ],
      "name": "burn",
      "outputs": [],
      "stateMutability": "nonpayable",
      "type": "function"
    },
    {
      "inputs": [
        {
          "internalType": "uint256",
          "name": "tokenId",
          "type": "uint256"
        }
      ],
      "name": "getApproved",
      "outputs": [
        {
          "internalType": "address",
          "name": "",
          "type": "address"
        }
      ],
      "stateMutability": "view",
      "type": "function"
    },
    {
      "inputs": [
        {
          "internalType": "address",
          "name": "owner",
          "type": "address"
        }
      ],
      "name": "getTokensByOwner",
      "outputs": [
        {
          "internalType": "uint256[]",
          "name": "",
          "type": "uint256[]"
        }
      ],
      "stateMutability": "view",
      "type": "function"
    },
    {
      "inputs": [
        {
          "internalType": "address",
          "name": "owner",
          "type": "address"
        },
        {
          "internalType": "address",
          "name": "operator",
          "type": "address"
        }
      ],
      "name": "isApprovedForAll",
      "outputs": [
        {
          "internalType": "bool",
          "name": "",
          "type": "bool"
        }
      ],
      "stateMutability": "view",
      "type": "function"
    },
    {
      "inputs": [
        {
          "internalType": "string",
          "name": "_tokenURI",
          "type": "string"
        }
      ],
      "name": "mintSkill",
      "outputs": [],
      "stateMutability": "nonpayable",
      "type": "function"
    },
    {
      "inputs": [],
      "name": "name",
      "outputs": [
        {
          "internalType": "string",
          "name": "",
          "type": "string"
        }
      ],
      "stateMutability": "view",
      "type": "function"
    },
    {
      "inputs": [],
      "name": "owner",
      "outputs": [
        {
          "internalType": "address",
          "name": "",
          "type": "address"
        }
      ],
      "stateMutability": "view",
      "type": "function"
    },
    {
      "inputs": [
        {
          "internalType": "uint256",
          "name": "tokenId",
          "type": "uint256"
        }
      ],
      "name": "ownerOf",
      "outputs": [
        {
          "internalType": "address",
          "name": "",
          "type": "address"
        }
      ],
      "stateMutability": "view",
      "type": "function"
    },
    {
      "inputs": [],
      "name": "renounceOwnership",
      "outputs": [],
      "stateMutability": "nonpayable",
      "type": "function"
    },
    {
      "inputs": [
        {
          "internalType": "address",
          "name": "from",
          "type": "address"
        },
        {
          "internalType": "address",
          "name": "to",
          "type": "address"
        },
        {
          "internalType": "uint256",
          "name": "tokenId",
          "type": "uint256"
        }
      ],
      "name": "safeTransferFrom",
      "outputs": [],
      "stateMutability": "nonpayable",
      "type": "function"
    },
    {
      "inputs": [
        {
          "internalType": "address",
          "name": "from",
          "type": "address"
        },
        {
          "internalType": "address",
          "name": "to",
          "type": "address"
        },
        {
          "internalType": "uint256",
          "name": "tokenId",
          "type": "uint256"
        },
        {
          "internalType": "bytes",
          "name": "data",
          "type": "bytes"
        }
      ],
      "name": "safeTransferFrom",
      "outputs": [],
      "stateMutability": "nonpayable",
      "type": "function"
    },
    {
      "inputs": [
        {
          "internalType": "address",
          "name": "",
          "type": "address"
        },
        {
          "internalType": "bool",
          "name": "",
          "type": "bool"
        }
      ],
      "name": "setApprovalForAll",
      "outputs": [],
      "stateMutability": "pure",
      "type": "function"
    },
    {
      "inputs": [
        {
          "internalType": "bytes4",
          "name": "interfaceId",
          "type": "bytes4"
        }
      ],
      "name": "supportsInterface",
      "outputs": [
        {
          "internalType": "bool",
          "name": "",
          "type": "bool"
        }
      ],
      "stateMutability": "view",
      "type": "function"
    },
    {
      "inputs": [],
      "name": "symbol",
      "outputs": [
        {
          "internalType": "string",
          "name": "",
          "type": "string"
        }
      ],
      "stateMutability": "view",
      "type": "function"
    },
    {
      "inputs": [
        {
          "internalType": "uint256",
          "name": "index",
          "type": "uint256"
        }
      ],
      "name": "tokenByIndex",
      "outputs": [
        {
          "internalType": "uint256",
          "name": "",
          "type": "uint256"
        }
      ],
      "stateMutability": "view",
      "type": "function"
    },
    {
      "inputs": [],
      "name": "tokenCount",
      "outputs": [
        {
          "internalType": "uint256",
          "name": "",
          "type": "uint256"
        }
      ],
      "stateMutability": "view",
      "type": "function"
    },
    {
      "inputs": [
        {
          "internalType": "address",
          "name": "owner",
          "type": "address"
        },
        {
          "internalType": "uint256",
          "name": "index",
          "type": "uint256"
        }
      ],
      "name": "tokenOfOwnerByIndex",
      "outputs": [
        {
          "internalType": "uint256",
          "name": "",
          "type": "uint256"
        }
      ],
      "stateMutability": "view",
      "type": "function"
    },
    {
      "inputs": [
        {
          "internalType": "uint256",
          "name": "tokenId",
          "type": "uint256"
        }
      ],
      "name": "tokenURI",
      "outputs": [
        {
          "internalType": "string",
          "name": "",
          "type": "string"
        }
      ],
      "stateMutability": "view",
      "type": "function"
    },
    {
      "inputs": [],
      "name": "totalSupply",
      "outputs": [
        {
          "internalType": "uint256",
          "name": "",
          "type": "uint256"
        }
      ],
      "stateMutability": "view",
      "type": "function"
    },
    {
      "inputs": [
        {
          "internalType": "address",
          "name": "from",
          "type": "address"
        },
        {
          "internalType": "address",
          "name": "to",
          "type": "address"
        },
        {
          "internalType": "uint256",
          "name": "tokenId",
          "type": "uint256"
        }
      ],
      "name": "transferFrom",
      "outputs": [],
      "stateMutability": "nonpayable",
      "type": "function"
    },
    {
      "inputs": [
        {
          "internalType": "address",
          "name": "newOwner",
          "type": "address"
        }
      ],
      "name": "transferOwnership",
      "outputs": [],
      "stateMutability": "nonpayable",
      "type": "function"
    }
  ],
  "bytecode": "0x608060405234801561001057600080fd5b50336040518060400160405280600981526020017f536b696c6c5061737300000000000000000000000000000000000000000000008152506040518060400160405280600581526020017f534b494c4c000000000000000000000000000000000000000000000000000000815250816000908161008d919061043d565b50806001908161009d919061043d565b505050600073ffffffffffffffffffffffffffffffffffffffff168173ffffffffffffffffffffffffffffffffffffffff16036101125760006040517f1e4fbdf70000000000000000000000000000000000000000000000000000000081526004016101099190610550565b60405180910390fd5b6101218161012760201b60201c565b5061056b565b6000600b60009054906101000a900473ffffffffffffffffffffffffffffffffffffffff16905081600b60006101000a81548173ffffffffffffffffffffffffffffffffffffffff021916908373ffffffffffffffffffffffffffffffffffffffff1602179055508173ffffffffffffffffffffffffffffffffffffffff168173ffffffffffffffffffffffffffffffffffffffff167f8be0079c531659141344cd1fd0a4f28419497f9722a3daafe3b4186f6b6457e060405160405180910390a35050565b600081519050919050565b7f4e487b7100000000000000000000000000000000000000000000000000000000600052604160045260246000fd5b7f4e487b7100000000000000000000000000000000000000000000000000000000600052602260045260246000fd5b6000600282049050600182168061026e57607f821691505b60208210810361028157610280610227565b5b50919050565b60008190508160005260206000209050919050565b60006020601f8301049050919050565b600082821b905092915050565b6000600883026102e97fffffffffffffffffffffffffffffffffffffffffffffffffffffffffffffffff826102ac565b6102f386836102ac565b95508019841693508086168417925050509392505050565b6000819050919050565b6000819050919050565b600061033a6103356103308461030b565b610315565b61030b565b9050919050565b6000819050919050565b6103548361031f565b61036861036082610341565b8484546102b9565b825550505050565b600090565b61037d610370565b61038881848461034b565b505050565b5b818110156103ac576103a1600082610375565b60018101905061038e565b5050565b601f8211156103f1576103c281610287565b6103cb8461029c565b810160208510156103da578190505b6103ee6103e68561029c565b83018261038d565b50505b505050565b600082821c905092915050565b6000610414600019846008026103f6565b1980831691505092915050565b600061042d8383610403565b9150826002028217905092915050565b610446826101ed565b67ffffffffffffffff81111561045f5761045e6101f8565b5b6104698254610256565b6104748282856103b0565b600060209050601f8311600181146104a75760008415610495578287015190505b61049f8582610421565b865550610507565b601f1984166104b586610287565b60005b828110156104dd578489015182556001820191506020850194506020810190506104b8565b868310156104fa57848901516104f6601f891682610403565b8355505b6001600288020188555050505b505050505050565b600073ffffffffffffffffffffffffffffffffffffffff82169050919050565b600061053a8261050f565b9050919050565b61054a8161052f565b82525050565b60006020820190506105656000830184610541565b92915050565b6132e28061057a6000396000f3fe608060405234801561001057600080fd5b50600436106101585760003560e01c80636352211e116100c3578063a22cb4651161007c578063a22cb465146103db578063b88d4fde146103f7578063c87b56dd14610413578063ddc4b51d14610443578063e985e9c51461045f578063f2fde38b1461048f57610158565b80636352211e1461031757806370a0823114610347578063715018a6146103775780638da5cb5b1461038157806395d89b411461039f5780639f181b5e146103bd57610158565b80632f745c59116101155780632f745c591461023157806332cb6b0c1461026157806340398d671461027f57806342842e0e146102af57806342966c68146102cb5780634f6ccce7146102e757610158565b806301ffc9a71461015d57806306fdde031461018d578063081812fc146101ab578063095ea7b3146101db57806318160ddd146101f757806323b872dd14610215575b600080fd5b610177600480360381019061017291906123e1565b6104ab565b6040516101849190612429565b60405180910390f35b6101956104bd565b6040516101a291906124d4565b60405180910390f35b6101c560048036038101906101c0919061252c565b61054f565b6040516101d2919061259a565b60405180910390f35b6101f560048036038101906101f091906125e1565b61056b565b005b6101ff6105a6565b60405161020c9190612630565b60405180910390f35b61022f600480360381019061022a919061264b565b6105b3565b005b61024b600480360381019061024691906125e1565b6106b5565b6040516102589190612630565b60405180910390f35b61026961075e565b6040516102769190612630565b60405180910390f35b6102996004803603810190610294919061269e565b610764565b6040516102a69190612789565b60405180910390f35b6102c960048036038101906102c4919061264b565b61080c565b005b6102e560048036038101906102e0919061252c565b61082c565b005b61030160048036038101906102fc919061252c565b6108eb565b60405161030e9190612630565b60405180910390f35b610331600480360381019061032c919061252c565b610961565b60405161033e919061259a565b60405180910390f35b610361600480360381019061035c919061269e565b610973565b60405161036e9190612630565b60405180910390f35b61037f610a2d565b005b610389610a41565b604051610396919061259a565b60405180910390f35b6103a7610a6b565b6040516103b491906124d4565b60405180910390f35b6103c5610afd565b6040516103d29190612630565b60405180910390f35b6103f560048036038101906103f091906127d7565b610b03565b005b610411600480360381019061040c919061294c565b610b3e565b005b61042d6004803603810190610428919061252c565b610b63565b60405161043a91906124d4565b60405180910390f35b61045d60048036038101906104589190612a70565b610b75565b005b61047960048036038101906104749190612ab9565b610c7d565b6040516104869190612429565b60405180910390f35b6104a960048036038101906104a4919061269e565b610d11565b005b60006104b682610d97565b9050919050565b6060600080546104cc90612b28565b80601f01602080910402602001604051908101604052809291908181526020018280546104f890612b28565b80156105455780601f1061051a57610100808354040283529160200191610545565b820191906000526020600020905b81548152906001019060200180831161052857829003601f168201915b5050505050905090565b600061055a82610e11565b5061056482610e99565b9050919050565b6040517f08c379a000000000000000000000000000000000000000000000000000000000815260040161059d90612bcb565b60405180910390fd5b6000600980549050905090565b600073ffffffffffffffffffffffffffffffffffffffff168273ffffffffffffffffffffffffffffffffffffffff16036106255760006040517f64a0ae9200000000000000000000000000000000000000000000000000000000815260040161061c919061259a565b60405180910390fd5b60006106398383610634610ed6565b610ede565b90508373ffffffffffffffffffffffffffffffffffffffff168173ffffffffffffffffffffffffffffffffffffffff16146106af578382826040517f64283d7b0000000000000000000000000000000000000000000000000000000081526004016106a693929190612beb565b60405180910390fd5b50505050565b60006106c083610973565b82106107055782826040517fa57d13dc0000000000000000000000000000000000000000000000000000000081526004016106fc929190612c22565b60405180910390fd5b600760008473ffffffffffffffffffffffffffffffffffffffff1673ffffffffffffffffffffffffffffffffffffffff168152602001908152602001600020600083815260200190815260200160002054905092915050565b61271081565b6060600061077183610973565b905060008167ffffffffffffffff81111561078f5761078e612821565b5b6040519080825280602002602001820160405280156107bd5781602001602082028036833780820191505090505b50905060005b82811015610801576107d585826106b5565b8282815181106107e8576107e7612c4b565b5b60200260200101818152505080806001019150506107c3565b508092505050919050565b61082783838360405180602001604052806000815250610b3e565b505050565b3373ffffffffffffffffffffffffffffffffffffffff1661084c82610961565b73ffffffffffffffffffffffffffffffffffffffff1614806108a057503373ffffffffffffffffffffffffffffffffffffffff16610888610a41565b73ffffffffffffffffffffffffffffffffffffffff16145b6108df576040517f08c379a00000000000000000000000000000000000000000000000000000000081526004016108d690612cc6565b60405180910390fd5b6108e881610fab565b50565b60006108f56105a6565b821061093b576000826040517fa57d13dc000000000000000000000000000000000000000000000000000000008152600401610932929190612c22565b60405180910390fd5b6009828154811061094f5761094e612c4b565b5b90600052602060002001549050919050565b600061096c82610e11565b9050919050565b60008073ffffffffffffffffffffffffffffffffffffffff168273ffffffffffffffffffffffffffffffffffffffff16036109e65760006040517f89c62b640000000000000000000000000000000000000000000000000000000081526004016109dd919061259a565b60405180910390fd5b600360008373ffffffffffffffffffffffffffffffffffffffff1673ffffffffffffffffffffffffffffffffffffffff168152602001908152602001600020549050919050565b610a35611031565b610a3f60006110b8565b565b6000600b60009054906101000a900473ffffffffffffffffffffffffffffffffffffffff16905090565b606060018054610a7a90612b28565b80601f0160208091040260200160405190810160405280929190818152602001828054610aa690612b28565b8015610af35780601f10610ac857610100808354040283529160200191610af3565b820191906000526020600020905b815481529060010190602001808311610ad657829003601f168201915b5050505050905090565b600c5481565b6040517f08c379a0000000000000000000000000000000000000000000000000000000008152600401610b3590612bcb565b60405180910390fd5b610b498484846105b3565b610b5d610b54610ed6565b8585858561117e565b50505050565b6060610b6e8261132f565b9050919050565b6000815111610bb9576040517f08c379a0000000000000000000000000000000000000000000000000000000008152600401610bb090612d32565b60405180910390fd5b612710600c5410610bff576040517f08c379a0000000000000000000000000000000000000000000000000000000008152600401610bf690612d9e565b60405180910390fd5b600c60008154809291906001019190505550610c1d33600c54611442565b610c29600c5482611460565b600c543373ffffffffffffffffffffffffffffffffffffffff167fffd7f1d123ebf0fe8f84ac2aff6c2678d4a9991c43b1ef34672f71cddda42f9083604051610c7291906124d4565b60405180910390a350565b6000600560008473ffffffffffffffffffffffffffffffffffffffff1673ffffffffffffffffffffffffffffffffffffffff16815260200190815260200160002060008373ffffffffffffffffffffffffffffffffffffffff1673ffffffffffffffffffffffffffffffffffffffff16815260200190815260200160002060009054906101000a900460ff16905092915050565b610d19611031565b600073ffffffffffffffffffffffffffffffffffffffff168173ffffffffffffffffffffffffffffffffffffffff1603610d8b5760006040517f1e4fbdf7000000000000000000000000000000000000000000000000000000008152600401610d82919061259a565b60405180910390fd5b610d94816110b8565b50565b60007f780e9d63000000000000000000000000000000000000000000000000000000007bffffffffffffffffffffffffffffffffffffffffffffffffffffffff1916827bffffffffffffffffffffffffffffffffffffffffffffffffffffffff19161480610e0a5750610e09826114bc565b5b9050919050565b600080610e1d8361151d565b9050600073ffffffffffffffffffffffffffffffffffffffff168173ffffffffffffffffffffffffffffffffffffffff1603610e9057826040517f7e273289000000000000000000000000000000000000000000000000000000008152600401610e879190612630565b60405180910390fd5b80915050919050565b60006004600083815260200190815260200160002060009054906101000a900473ffffffffffffffffffffffffffffffffffffffff169050919050565b600033905090565b600080610eea8461151d565b9050600073ffffffffffffffffffffffffffffffffffffffff168173ffffffffffffffffffffffffffffffffffffffff1614158015610f565750600073ffffffffffffffffffffffffffffffffffffffff168573ffffffffffffffffffffffffffffffffffffffff1614155b15610f96576040517f08c379a0000000000000000000000000000000000000000000000000000000008152600401610f8d90612e0a565b60405180910390fd5b610fa185858561155a565b9150509392505050565b6000610fba6000836000610ede565b9050600073ffffffffffffffffffffffffffffffffffffffff168173ffffffffffffffffffffffffffffffffffffffff160361102d57816040517f7e2732890000000000000000000000000000000000000000000000000000000081526004016110249190612630565b60405180910390fd5b5050565b611039610ed6565b73ffffffffffffffffffffffffffffffffffffffff16611057610a41565b73ffffffffffffffffffffffffffffffffffffffff16146110b65761107a610ed6565b6040517f118cdaa70000000000000000000000000000000000000000000000000000000081526004016110ad919061259a565b60405180910390fd5b565b6000600b60009054906101000a900473ffffffffffffffffffffffffffffffffffffffff16905081600b60006101000a81548173ffffffffffffffffffffffffffffffffffffffff021916908373ffffffffffffffffffffffffffffffffffffffff1602179055508173ffffffffffffffffffffffffffffffffffffffff168173ffffffffffffffffffffffffffffffffffffffff167f8be0079c531659141344cd1fd0a4f28419497f9722a3daafe3b4186f6b6457e060405160405180910390a35050565b60008373ffffffffffffffffffffffffffffffffffffffff163b1115611328578273ffffffffffffffffffffffffffffffffffffffff1663150b7a02868685856040518563ffffffff1660e01b81526004016111dd9493929190612e7f565b6020604051808303816000875af192505050801561121957506040513d601f19601f820116820180604052508101906112169190612ee0565b60015b61129d573d8060008114611249576040519150601f19603f3d011682016040523d82523d6000602084013e61124e565b606091505b50600081510361129557836040517f64a0ae9200000000000000000000000000000000000000000000000000000000815260040161128c919061259a565b60405180910390fd5b805181602001fd5b63150b7a0260e01b7bffffffffffffffffffffffffffffffffffffffffffffffffffffffff1916817bffffffffffffffffffffffffffffffffffffffffffffffffffffffff19161461132657836040517f64a0ae9200000000000000000000000000000000000000000000000000000000815260040161131d919061259a565b60405180910390fd5b505b5050505050565b606061133a82610e11565b50600060066000848152602001908152602001600020805461135b90612b28565b80601f016020809104026020016040519081016040528092919081815260200182805461138790612b28565b80156113d45780601f106113a9576101008083540402835291602001916113d4565b820191906000526020600020905b8154815290600101906020018083116113b757829003601f168201915b5050505050905060006113e5611677565b905060008151036113fa57819250505061143d565b60008251111561142f578082604051602001611417929190612f49565b6040516020818303038152906040529250505061143d565b6114388461168e565b925050505b919050565b61145c8282604051806020016040528060008152506116f7565b5050565b806006600084815260200190815260200160002090816114809190613119565b507ff8e1a15aba9398e019f0b49df1a4fde98ee17ae345cb5f6b5e2c27f5033e8ce7826040516114b09190612630565b60405180910390a15050565b6000634906490660e01b7bffffffffffffffffffffffffffffffffffffffffffffffffffffffff1916827bffffffffffffffffffffffffffffffffffffffffffffffffffffffff1916148061151657506115158261171b565b5b9050919050565b60006002600083815260200190815260200160002060009054906101000a900473ffffffffffffffffffffffffffffffffffffffff169050919050565b6000806115688585856117fd565b9050600073ffffffffffffffffffffffffffffffffffffffff168173ffffffffffffffffffffffffffffffffffffffff16036115ac576115a784611a17565b6115eb565b8473ffffffffffffffffffffffffffffffffffffffff168173ffffffffffffffffffffffffffffffffffffffff16146115ea576115e98185611a60565b5b5b600073ffffffffffffffffffffffffffffffffffffffff168573ffffffffffffffffffffffffffffffffffffffff160361162d5761162884611b4b565b61166c565b8473ffffffffffffffffffffffffffffffffffffffff168173ffffffffffffffffffffffffffffffffffffffff161461166b5761166a8585611c1c565b5b5b809150509392505050565b606060405180602001604052806000815250905090565b606061169982610e11565b5060006116a4611677565b905060008151116116c457604051806020016040528060008152506116ef565b806116ce84611ca7565b6040516020016116df929190612f49565b6040516020818303038152906040525b915050919050565b6117018383611d75565b61171661170c610ed6565b600085858561117e565b505050565b60007f80ac58cd000000000000000000000000000000000000000000000000000000007bffffffffffffffffffffffffffffffffffffffffffffffffffffffff1916827bffffffffffffffffffffffffffffffffffffffffffffffffffffffff191614806117e657507f5b5e139f000000000000000000000000000000000000000000000000000000007bffffffffffffffffffffffffffffffffffffffffffffffffffffffff1916827bffffffffffffffffffffffffffffffffffffffffffffffffffffffff1916145b806117f657506117f582611e6e565b5b9050919050565b6000806118098461151d565b9050600073ffffffffffffffffffffffffffffffffffffffff168373ffffffffffffffffffffffffffffffffffffffff161461184b5761184a818486611ed8565b5b600073ffffffffffffffffffffffffffffffffffffffff168173ffffffffffffffffffffffffffffffffffffffff16146118dc5761188d600085600080611f9c565b6001600360008373ffffffffffffffffffffffffffffffffffffffff1673ffffffffffffffffffffffffffffffffffffffff168152602001908152602001600020600082825403925050819055505b600073ffffffffffffffffffffffffffffffffffffffff168573ffffffffffffffffffffffffffffffffffffffff161461195f576001600360008773ffffffffffffffffffffffffffffffffffffffff1673ffffffffffffffffffffffffffffffffffffffff168152602001908152602001600020600082825401925050819055505b846002600086815260200190815260200160002060006101000a81548173ffffffffffffffffffffffffffffffffffffffff021916908373ffffffffffffffffffffffffffffffffffffffff160217905550838573ffffffffffffffffffffffffffffffffffffffff168273ffffffffffffffffffffffffffffffffffffffff167fddf252ad1be2c89b69c2b068fc378daa952ba7f163c4a11628f55a4df523b3ef60405160405180910390a4809150509392505050565b600980549050600a600083815260200190815260200160002081905550600981908060018154018082558091505060019003906000526020600020016000909190919091505550565b6000611a6b83610973565b90506000600860008481526020019081526020016000205490506000600760008673ffffffffffffffffffffffffffffffffffffffff1673ffffffffffffffffffffffffffffffffffffffff1681526020019081526020016000209050828214611b175760008160008581526020019081526020016000205490508082600085815260200190815260200160002081905550826008600083815260200190815260200160002081905550505b6008600085815260200190815260200160002060009055806000848152602001908152602001600020600090555050505050565b60006001600980549050611b5f919061321a565b90506000600a6000848152602001908152602001600020549050600060098381548110611b8f57611b8e612c4b565b5b906000526020600020015490508060098381548110611bb157611bb0612c4b565b5b906000526020600020018190555081600a600083815260200190815260200160002081905550600a6000858152602001908152602001600020600090556009805480611c0057611bff61324e565b5b6001900381819060005260206000200160009055905550505050565b60006001611c2984610973565b611c33919061321a565b905081600760008573ffffffffffffffffffffffffffffffffffffffff1673ffffffffffffffffffffffffffffffffffffffff168152602001908152602001600020600083815260200190815260200160002081905550806008600084815260200190815260200160002081905550505050565b606060006001611cb684612161565b01905060008167ffffffffffffffff811115611cd557611cd4612821565b5b6040519080825280601f01601f191660200182016040528015611d075781602001600182028036833780820191505090505b509050600082602001820190505b600115611d6a578080600190039150507f3031323334353637383961626364656600000000000000000000000000000000600a86061a8153600a8581611d5e57611d5d61327d565b5b04945060008503611d15575b819350505050919050565b600073ffffffffffffffffffffffffffffffffffffffff168273ffffffffffffffffffffffffffffffffffffffff1603611de75760006040517f64a0ae92000000000000000000000000000000000000000000000000000000008152600401611dde919061259a565b60405180910390fd5b6000611df583836000610ede565b9050600073ffffffffffffffffffffffffffffffffffffffff168173ffffffffffffffffffffffffffffffffffffffff1614611e695760006040517f73c6ac6e000000000000000000000000000000000000000000000000000000008152600401611e60919061259a565b60405180910390fd5b505050565b60007f01ffc9a7000000000000000000000000000000000000000000000000000000007bffffffffffffffffffffffffffffffffffffffffffffffffffffffff1916827bffffffffffffffffffffffffffffffffffffffffffffffffffffffff1916149050919050565b611ee38383836122b4565b611f9757600073ffffffffffffffffffffffffffffffffffffffff168373ffffffffffffffffffffffffffffffffffffffff1603611f5857806040517f7e273289000000000000000000000000000000000000000000000000000000008152600401611f4f9190612630565b60405180910390fd5b81816040517f177e802f000000000000000000000000000000000000000000000000000000008152600401611f8e929190612c22565b60405180910390fd5b505050565b8080611fd55750600073ffffffffffffffffffffffffffffffffffffffff168273ffffffffffffffffffffffffffffffffffffffff1614155b15612109576000611fe584610e11565b9050600073ffffffffffffffffffffffffffffffffffffffff168373ffffffffffffffffffffffffffffffffffffffff161415801561205057508273ffffffffffffffffffffffffffffffffffffffff168173ffffffffffffffffffffffffffffffffffffffff1614155b801561206357506120618184610c7d565b155b156120a557826040517fa9fbf51f00000000000000000000000000000000000000000000000000000000815260040161209c919061259a565b60405180910390fd5b811561210757838573ffffffffffffffffffffffffffffffffffffffff168273ffffffffffffffffffffffffffffffffffffffff167f8c5be1e5ebec7d5bd14f71427d1e84f3dd0314c0f7b2291e5b200ac8c7c3b92560405160405180910390a45b505b836004600085815260200190815260200160002060006101000a81548173ffffffffffffffffffffffffffffffffffffffff021916908373ffffffffffffffffffffffffffffffffffffffff16021790555050505050565b600080600090507a184f03e93ff9f4daa797ed6e38ed64bf6a1f01000000000000000083106121bf577a184f03e93ff9f4daa797ed6e38ed64bf6a1f01000000000000000083816121b5576121b461327d565b5b0492506040810190505b6d04ee2d6d415b85acef810000000083106121fc576d04ee2d6d415b85acef810000000083816121f2576121f161327d565b5b0492506020810190505b662386f26fc10000831061222b57662386f26fc1000083816122215761222061327d565b5b0492506010810190505b6305f5e1008310612254576305f5e100838161224a5761224961327d565b5b0492506008810190505b612710831061227957612710838161226f5761226e61327d565b5b0492506004810190505b6064831061229c57606483816122925761229161327d565b5b0492506002810190505b600a83106122ab576001810190505b80915050919050565b60008073ffffffffffffffffffffffffffffffffffffffff168373ffffffffffffffffffffffffffffffffffffffff161415801561236c57508273ffffffffffffffffffffffffffffffffffffffff168473ffffffffffffffffffffffffffffffffffffffff16148061232d575061232c8484610c7d565b5b8061236b57508273ffffffffffffffffffffffffffffffffffffffff1661235383610e99565b73ffffffffffffffffffffffffffffffffffffffff16145b5b90509392505050565b6000604051905090565b600080fd5b600080fd5b60007fffffffff0000000000000000000000000000000000000000000000000000000082169050919050565b6123be81612389565b81146123c957600080fd5b50565b6000813590506123db816123b5565b92915050565b6000602082840312156123f7576123f661237f565b5b6000612405848285016123cc565b91505092915050565b60008115159050919050565b6124238161240e565b82525050565b600060208201905061243e600083018461241a565b92915050565b600081519050919050565b600082825260208201905092915050565b60005b8381101561247e578082015181840152602081019050612463565b60008484015250505050565b6000601f19601f8301169050919050565b60006124a682612444565b6124b0818561244f565b93506124c0818560208601612460565b6124c98161248a565b840191505092915050565b600060208201905081810360008301526124ee818461249b565b905092915050565b6000819050919050565b612509816124f6565b811461251457600080fd5b50565b60008135905061252681612500565b92915050565b6000602082840312156125425761254161237f565b5b600061255084828501612517565b91505092915050565b600073ffffffffffffffffffffffffffffffffffffffff82169050919050565b600061258482612559565b9050919050565b61259481612579565b82525050565b60006020820190506125af600083018461258b565b92915050565b6125be81612579565b81146125c957600080fd5b50565b6000813590506125db816125b5565b92915050565b600080604083850312156125f8576125f761237f565b5b6000612606858286016125cc565b925050602061261785828601612517565b9150509250929050565b61262a816124f6565b82525050565b60006020820190506126456000830184612621565b92915050565b6000806000606084860312156126645761266361237f565b5b6000612672868287016125cc565b9350506020612683868287016125cc565b925050604061269486828701612517565b9150509250925092565b6000602082840312156126b4576126b361237f565b5b60006126c2848285016125cc565b91505092915050565b600081519050919050565b600082825260208201905092915050565b6000819050602082019050919050565b612700816124f6565b82525050565b600061271283836126f7565b60208301905092915050565b6000602082019050919050565b6000612736826126cb565b61274081856126d6565b935061274b836126e7565b8060005b8381101561277c5781516127638882612706565b975061276e8361271e565b92505060018101905061274f565b5085935050505092915050565b600060208201905081810360008301526127a3818461272b565b905092915050565b6127b48161240e565b81146127bf57600080fd5b50565b6000813590506127d1816127ab565b92915050565b600080604083850312156127ee576127ed61237f565b5b60006127fc858286016125cc565b925050602061280d858286016127c2565b9150509250929050565b600080fd5b600080fd5b7f4e487b7100000000000000000000000000000000000000000000000000000000600052604160045260246000fd5b6128598261248a565b810181811067ffffffffffffffff8211171561287857612877612821565b5b80604052505050565b600061288b612375565b90506128978282612850565b919050565b600067ffffffffffffffff8211156128b7576128b6612821565b5b6128c08261248a565b9050602081019050919050565b82818337600083830152505050565b60006128ef6128ea8461289c565b612881565b90508281526020810184848401111561290b5761290a61281c565b5b6129168482856128cd565b509392505050565b600082601f83011261293357612932612817565b5b81356129438482602086016128dc565b91505092915050565b600080600080608085870312156129665761296561237f565b5b6000612974878288016125cc565b9450506020612985878288016125cc565b935050604061299687828801612517565b925050606085013567ffffffffffffffff8111156129b7576129b6612384565b5b6129c38782880161291e565b91505092959194509250565b600067ffffffffffffffff8211156129ea576129e9612821565b5b6129f38261248a565b9050602081019050919050565b6000612a13612a0e846129cf565b612881565b905082815260208101848484011115612a2f57612a2e61281c565b5b612a3a8482856128cd565b509392505050565b600082601f830112612a5757612a56612817565b5b8135612a67848260208601612a00565b91505092915050565b600060208284031215612a8657612a8561237f565b5b600082013567ffffffffffffffff811115612aa457612aa3612384565b5b612ab084828501612a42565b91505092915050565b60008060408385031215612ad057612acf61237f565b5b6000612ade858286016125cc565b9250506020612aef858286016125cc565b9150509250929050565b7f4e487b7100000000000000000000000000000000000000000000000000000000600052602260045260246000fd5b60006002820490506001821680612b4057607f821691505b602082108103612b5357612b52612af9565b5b50919050565b7f417070726f76616c732064697361626c656420666f7220736f756c626f756e6460008201527f20746f6b656e7300000000000000000000000000000000000000000000000000602082015250565b6000612bb560278361244f565b9150612bc082612b59565b604082019050919050565b60006020820190508181036000830152612be481612ba8565b9050919050565b6000606082019050612c00600083018661258b565b612c0d6020830185612621565b612c1a604083018461258b565b949350505050565b6000604082019050612c37600083018561258b565b612c446020830184612621565b9392505050565b7f4e487b7100000000000000000000000000000000000000000000000000000000600052603260045260246000fd5b7f4e6f74206f776e65720000000000000000000000000000000000000000000000600082015250565b6000612cb060098361244f565b9150612cbb82612c7a565b602082019050919050565b60006020820190508181036000830152612cdf81612ca3565b9050919050565b7f456d707479205552490000000000000000000000000000000000000000000000600082015250565b6000612d1c60098361244f565b9150612d2782612ce6565b602082019050919050565b60006020820190508181036000830152612d4b81612d0f565b9050919050565b7f4d617820737570706c7920726561636865640000000000000000000000000000600082015250565b6000612d8860128361244f565b9150612d9382612d52565b602082019050919050565b60006020820190508181036000830152612db781612d7b565b9050919050565b7f536f756c626f756e643a205472616e73666572732064697361626c6564000000600082015250565b6000612df4601d8361244f565b9150612dff82612dbe565b602082019050919050565b60006020820190508181036000830152612e2381612de7565b9050919050565b600081519050919050565b600082825260208201905092915050565b6000612e5182612e2a565b612e5b8185612e35565b9350612e6b818560208601612460565b612e748161248a565b840191505092915050565b6000608082019050612e94600083018761258b565b612ea1602083018661258b565b612eae6040830185612621565b8181036060830152612ec08184612e46565b905095945050505050565b600081519050612eda816123b5565b92915050565b600060208284031215612ef657612ef561237f565b5b6000612f0484828501612ecb565b91505092915050565b600081905092915050565b6000612f2382612444565b612f2d8185612f0d565b9350612f3d818560208601612460565b80840191505092915050565b6000612f558285612f18565b9150612f618284612f18565b91508190509392505050565b60008190508160005260206000209050919050565b60006020601f8301049050919050565b600082821b905092915050565b600060088302612fcf7fffffffffffffffffffffffffffffffffffffffffffffffffffffffffffffffff82612f92565b612fd98683612f92565b95508019841693508086168417925050509392505050565b6000819050919050565b600061301661301161300c846124f6565b612ff1565b6124f6565b9050919050565b6000819050919050565b61303083612ffb565b61304461303c8261301d565b848454612f9f565b825550505050565b600090565b61305961304c565b613064818484613027565b505050565b5b818110156130885761307d600082613051565b60018101905061306a565b5050565b601f8211156130cd5761309e81612f6d565b6130a784612f82565b810160208510156130b6578190505b6130ca6130c285612f82565b830182613069565b50505b505050565b600082821c905092915050565b60006130f0600019846008026130d2565b1980831691505092915050565b600061310983836130df565b9150826002028217905092915050565b61312282612444565b67ffffffffffffffff81111561313b5761313a612821565b5b6131458254612b28565b61315082828561308c565b600060209050601f8311600181146131835760008415613171578287015190505b61317b85826130fd565b8655506131e3565b601f19841661319186612f6d565b60005b828110156131b957848901518255600182019150602085019450602081019050613194565b868310156131d657848901516131d2601f8916826130df565b8355505b6001600288020188555050505b505050505050565b7f4e487b7100000000000000000000000000000000000000000000000000000000600052601160045260246000fd5b6000613225826124f6565b9150613230836124f6565b9250828203905081811115613248576132476131eb565b5b92915050565b7f4e487b7100000000000000000000000000000000000000000000000000000000600052603160045260246000fd5b7f4e487b7100000000000000000000000000000000000000000000000000000000600052601260045260246000fdfea2646970667358221220e59c31955666a685220db784f4ea2f8c905508ec403d593177ea7f6b8659f0c564736f6c634300081c0033",
  "linkReferences": {},
  "deployedLinkReferences": {}
}