{
  "_format": "hh-sol-artifact-1",
  "contractName": "WorkHistory",
  "sourceName": "contracts/WorkHistory.sol",
  "abi": [
    {
      "anonymous": false,
      "inputs": [
        {
          "indexed": true,
          "internalType": "address",
          "name": "user",
          "type": "address"
        },
        {
          "indexed": false,
          "internalType": "string",
          "name": "title",
          "type": "string"
        },
        {
          "indexed": false,
          "internalType": "string",
          "name": "company",
          "type": "string"
        }
      ],
      "name": "WorkAdded",
      "type": "event"
    },
    {
      "inputs": [
        {
          "internalType": "string",
          "name": "_title",
          "type": "string"
        },
        {
          "internalType": "string",
          "name": "_description",
          "type": "string"
        },
        {
          "internalType": "string",
          "name": "_company",
          "type": "string"
        }
      ],
      "name": "addWork",
      "outputs": [],
      "stateMutability": "nonpayable",
      "type": "function"
    },
    {
      "inputs": [
        {
          "internalType": "address",
          "name": "user",
          "type": "address"
        }
      ],
      "name": "getWorkHistory",
      "outputs": [
        {
          "components": [
            {
              "internalType": "string",
              "name": "title",
              "type": "string"
            },
            {
              "internalType": "string",
              "name": "description",
              "type": "string"
            },
            {
              "internalType": "string",
              "name": "company",
              "type": "string"
            },
            {
              "internalType": "uint256",
              "name": "timestamp",
              "type": "uint256"
            }
          ],
          "internalType": "struct WorkHistory.WorkEntry[]",
          "name": "",
          "type": "tuple[]"
        }
      ],
      "stateMutability": "view",
      "type": "function"
    }
  ],
  "bytecode": "0x6080604052348015600f57600080fd5b50610c238061001f6000396000f3fe608060405234801561001057600080fd5b50600436106100365760003560e01c806375913ebe1461003b578063b708e31e1461006b575b600080fd5b61005560048036038101906100509190610487565b610087565b6040516100629190610690565b60405180910390f35b610085600480360381019061008091906107e7565b6102e4565b005b60606000808373ffffffffffffffffffffffffffffffffffffffff1673ffffffffffffffffffffffffffffffffffffffff168152602001908152602001600020805480602002602001604051908101604052809291908181526020016000905b828210156102d9578382906000526020600020906004020160405180608001604052908160008201805461011a906108bd565b80601f0160208091040260200160405190810160405280929190818152602001828054610146906108bd565b80156101935780601f1061016857610100808354040283529160200191610193565b820191906000526020600020905b81548152906001019060200180831161017657829003601f168201915b505050505081526020016001820180546101ac906108bd565b80601f01602080910402602001604051908101604052809291908181526020018280546101d8906108bd565b80156102255780601f106101fa57610100808354040283529160200191610225565b820191906000526020600020905b81548152906001019060200180831161020857829003601f168201915b5050505050815260200160028201805461023e906108bd565b80601f016020809104026020016040519081016040528092919081815260200182805461026a906108bd565b80156102b75780601f1061028c576101008083540402835291602001916102b7565b820191906000526020600020905b81548152906001019060200180831161029a57829003601f168201915b50505050508152602001600382015481525050815260200190600101906100e7565b505050509050919050565b600060405180608001604052808581526020018481526020018381526020014281525090506000803373ffffffffffffffffffffffffffffffffffffffff1673ffffffffffffffffffffffffffffffffffffffff16815260200190815260200160002081908060018154018082558091505060019003906000526020600020906004020160009091909190915060008201518160000190816103869190610a9a565b50602082015181600101908161039c9190610a9a565b5060408201518160020190816103b29190610a9a565b506060820151816003015550503373ffffffffffffffffffffffffffffffffffffffff167fd67be9181d1b74f3aa61c7cac986c48a23f92d4ea4d20dfe8377d177e640bc2d8584604051610407929190610bb6565b60405180910390a250505050565b6000604051905090565b600080fd5b600080fd5b600073ffffffffffffffffffffffffffffffffffffffff82169050919050565b600061045482610429565b9050919050565b61046481610449565b811461046f57600080fd5b50565b6000813590506104818161045b565b92915050565b60006020828403121561049d5761049c61041f565b5b60006104ab84828501610472565b91505092915050565b600081519050919050565b600082825260208201905092915050565b6000819050602082019050919050565b600081519050919050565b600082825260208201905092915050565b60005b8381101561051a5780820151818401526020810190506104ff565b60008484015250505050565b6000601f19601f8301169050919050565b6000610542826104e0565b61054c81856104eb565b935061055c8185602086016104fc565b61056581610526565b840191505092915050565b6000819050919050565b61058381610570565b82525050565b600060808301600083015184820360008601526105a68282610537565b915050602083015184820360208601526105c08282610537565b915050604083015184820360408601526105da8282610537565b91505060608301516105ef606086018261057a565b508091505092915050565b60006106068383610589565b905092915050565b6000602082019050919050565b6000610626826104b4565b61063081856104bf565b935083602082028501610642856104d0565b8060005b8581101561067e578484038952815161065f85826105fa565b945061066a8361060e565b925060208a01995050600181019050610646565b50829750879550505050505092915050565b600060208201905081810360008301526106aa818461061b565b905092915050565b600080fd5b600080fd5b7f4e487b7100000000000000000000000000000000000000000000000000000000600052604160045260246000fd5b6106f482610526565b810181811067ffffffffffffffff82111715610713576107126106bc565b5b80604052505050565b6000610726610415565b905061073282826106eb565b919050565b600067ffffffffffffffff821115610752576107516106bc565b5b61075b82610526565b9050602081019050919050565b82818337600083830152505050565b600061078a61078584610737565b61071c565b9050828152602081018484840111156107a6576107a56106b7565b5b6107b1848285610768565b509392505050565b600082601f8301126107ce576107cd6106b2565b5b81356107de848260208601610777565b91505092915050565b600080600060608486031215610800576107ff61041f565b5b600084013567ffffffffffffffff81111561081e5761081d610424565b5b61082a868287016107b9565b935050602084013567ffffffffffffffff81111561084b5761084a610424565b5b610857868287016107b9565b925050604084013567ffffffffffffffff81111561087857610877610424565b5b610884868287016107b9565b9150509250925092565b7f4e487b7100000000000000000000000000000000000000000000000000000000600052602260045260246000fd5b600060028204905060018216806108d557607f821691505b6020821081036108e8576108e761088e565b5b50919050565b60008190508160005260206000209050919050565b60006020601f8301049050919050565b600082821b905092915050565b6000600883026109507fffffffffffffffffffffffffffffffffffffffffffffffffffffffffffffffff82610913565b61095a8683610913565b95508019841693508086168417925050509392505050565b6000819050919050565b600061099761099261098d84610570565b610972565b610570565b9050919050565b6000819050919050565b6109b18361097c565b6109c56109bd8261099e565b848454610920565b825550505050565b600090565b6109da6109cd565b6109e58184846109a8565b505050565b5b81811015610a09576109fe6000826109d2565b6001810190506109eb565b5050565b601f821115610a4e57610a1f816108ee565b610a2884610903565b81016020851015610a37578190505b610a4b610a4385610903565b8301826109ea565b50505b505050565b600082821c905092915050565b6000610a7160001984600802610a53565b1980831691505092915050565b6000610a8a8383610a60565b9150826002028217905092915050565b610aa3826104e0565b67ffffffffffffffff811115610abc57610abb6106bc565b5b610ac682546108bd565b610ad1828285610a0d565b600060209050601f831160018114610b045760008415610af2578287015190505b610afc8582610a7e565b865550610b64565b601f198416610b12866108ee565b60005b82811015610b3a57848901518255600182019150602085019450602081019050610b15565b86831015610b575784890151610b53601f891682610a60565b8355505b6001600288020188555050505b505050505050565b600082825260208201905092915050565b6000610b88826104e0565b610b928185610b6c565b9350610ba28185602086016104fc565b610bab81610526565b840191505092915050565b60006040820190508181036000830152610bd08185610b7d565b90508181036020830152610be48184610b7d565b9050939250505056fea2646970667358221220dffc7f64c05e3a48d875e935b40734bb9ba230bc3fa50a9c7a47539946af8cc564736f6c634300081c0033",
  "linkReferences": {},
  "deployedLinkReferences": {}
}